{
  "_format": "hh-sol-artifact-1",
  "contractName": "EscrowContract",
  "sourceName": "contracts/EscrowContract.sol",
  "abi": [
    {
      "inputs": [
        {
          "internalType": "address",
          "name": "_seller",
          "type": "address"
        },
        {
          "internalType": "address",
          "name": "_arbiter",
          "type": "address"
        }
      ],
      "stateMutability": "nonpayable",
      "type": "constructor"
    },
    {
      "anonymous": false,
      "inputs": [
        {
          "indexed": true,
          "internalType": "address",
          "name": "depositor",
          "type": "address"
        },
        {
          "indexed": false,
          "internalType": "uint256",
          "name": "amount",
          "type": "uint256"
        }
      ],
      "name": "FundsDeposited",
      "type": "event"
    },
    {
      "anonymous": false,
      "inputs": [
        {
          "indexed": false,
          "internalType": "uint256",
          "name": "amount",
          "type": "uint256"
        }
      ],
      "name": "FundsRefunded",
      "type": "event"
    },
    {
      "anonymous": false,
      "inputs": [
        {
          "indexed": false,
          "internalType": "uint256",
          "name": "amount",
          "type": "uint256"
        }
      ],
      "name": "FundsReleased",
      "type": "event"
    },
    {
      "inputs": [],
      "name": "amount",
      "outputs": [
        {
          "internalType": "uint256",
          "name": "",
          "type": "uint256"
        }
      ],
      "stateMutability": "view",
      "type": "function"
    },
    {
      "inputs": [],
      "name": "arbiter",
      "outputs": [
        {
          "internalType": "address",
          "name": "",
          "type": "address"
        }
      ],
      "stateMutability": "view",
      "type": "function"
    },
    {
      "inputs": [],
      "name": "buyer",
      "outputs": [
        {
          "internalType": "address",
          "name": "",
          "type": "address"
        }
      ],
      "stateMutability": "view",
      "type": "function"
    },
    {
      "inputs": [],
      "name": "depositFunds",
      "outputs": [],
      "stateMutability": "payable",
      "type": "function"
    },
    {
      "inputs": [],
      "name": "getContractBalance",
      "outputs": [
        {
          "internalType": "uint256",
          "name": "",
          "type": "uint256"
        }
      ],
      "stateMutability": "view",
      "type": "function"
    },
    {
      "inputs": [],
      "name": "refundApproved",
      "outputs": [
        {
          "internalType": "bool",
          "name": "",
          "type": "bool"
        }
      ],
      "stateMutability": "view",
      "type": "function"
    },
    {
      "inputs": [],
      "name": "refundBuyer",
      "outputs": [],
      "stateMutability": "nonpayable",
      "type": "function"
    },
    {
      "inputs": [],
      "name": "releaseApproved",
      "outputs": [
        {
          "internalType": "bool",
          "name": "",
          "type": "bool"
        }
      ],
      "stateMutability": "view",
      "type": "function"
    },
    {
      "inputs": [],
      "name": "releaseFunds",
      "outputs": [],
      "stateMutability": "nonpayable",
      "type": "function"
    },
    {
      "inputs": [],
      "name": "seller",
      "outputs": [
        {
          "internalType": "address",
          "name": "",
          "type": "address"
        }
      ],
      "stateMutability": "view",
      "type": "function"
    }
  ],
  "bytecode": "0x608060405234801561001057600080fd5b50604051610d2b380380610d2b83398181016040528101906100329190610110565b336000806101000a81548173ffffffffffffffffffffffffffffffffffffffff021916908373ffffffffffffffffffffffffffffffffffffffff16021790555081600160006101000a81548173ffffffffffffffffffffffffffffffffffffffff021916908373ffffffffffffffffffffffffffffffffffffffff16021790555080600260006101000a81548173ffffffffffffffffffffffffffffffffffffffff021916908373ffffffffffffffffffffffffffffffffffffffff1602179055505050610195565b60008151905061010a8161017e565b92915050565b6000806040838503121561012357600080fd5b6000610131858286016100fb565b9250506020610142858286016100fb565b9150509250929050565b60006101578261015e565b9050919050565b600073ffffffffffffffffffffffffffffffffffffffff82169050919050565b6101878161014c565b811461019257600080fd5b50565b610b87806101a46000396000f3fe6080604052600436106100915760003560e01c8063aa8c217c11610059578063aa8c217c14610159578063d60c13a114610184578063e2c41dbc146101af578063e8a61cc8146101b9578063fe25e00a146101d057610091565b806308551a531461009657806369d89575146100c15780636c6e1417146100d85780636f9fb98a146101035780637150d8ae1461012e575b600080fd5b3480156100a257600080fd5b506100ab6101fb565b6040516100b89190610982565b60405180910390f35b3480156100cd57600080fd5b506100d6610221565b005b3480156100e457600080fd5b506100ed610433565b6040516100fa919061099d565b60405180910390f35b34801561010f57600080fd5b50610118610446565b6040516101259190610a58565b60405180910390f35b34801561013a57600080fd5b5061014361044e565b6040516101509190610982565b60405180910390f35b34801561016557600080fd5b5061016e610472565b60405161017b9190610a58565b60405180910390f35b34801561019057600080fd5b50610199610478565b6040516101a6919061099d565b60405180910390f35b6101b761048b565b005b3480156101c557600080fd5b506101ce6105c5565b005b3480156101dc57600080fd5b506101e561077d565b6040516101f29190610982565b60405180910390f35b600160009054906101000a900473ffffffffffffffffffffffffffffffffffffffff1681565b600160009054906101000a900473ffffffffffffffffffffffffffffffffffffffff1673ffffffffffffffffffffffffffffffffffffffff163373ffffffffffffffffffffffffffffffffffffffff1614806102ca5750600260009054906101000a900473ffffffffffffffffffffffffffffffffffffffff1673ffffffffffffffffffffffffffffffffffffffff163373ffffffffffffffffffffffffffffffffffffffff16145b610309576040517f08c379a000000000000000000000000000000000000000000000000000000000815260040161030090610a38565b60405180910390fd5b600460009054906101000a900460ff161580156103335750600460019054906101000a900460ff16155b610372576040517f08c379a0000000000000000000000000000000000000000000000000000000008152600401610369906109f8565b60405180910390fd5b6001600460006101000a81548160ff021916908315150217905550600160009054906101000a900473ffffffffffffffffffffffffffffffffffffffff1673ffffffffffffffffffffffffffffffffffffffff166108fc6003549081150290604051600060405180830381858888f193505050501580156103f7573d6000803e3d6000fd5b507f952b264c8e0a06cddb4bbaa6d6af1d565145329fd95bbe72cb2b53942b2dc9666003546040516104299190610a58565b60405180910390a1565b600460009054906101000a900460ff1681565b600047905090565b60008054906101000a900473ffffffffffffffffffffffffffffffffffffffff1681565b60035481565b600460019054906101000a900460ff1681565b60008054906101000a900473ffffffffffffffffffffffffffffffffffffffff1673ffffffffffffffffffffffffffffffffffffffff163373ffffffffffffffffffffffffffffffffffffffff1614610519576040517f08c379a000000000000000000000000000000000000000000000000000000000815260040161051090610a18565b60405180910390fd5b6000341161055c576040517f08c379a0000000000000000000000000000000000000000000000000000000008152600401610553906109d8565b60405180910390fd5b346003600082825461056e9190610a84565b925050819055503373ffffffffffffffffffffffffffffffffffffffff167f543ba50a5eec5e6178218e364b1d0f396157b3c8fa278522c2cb7fd99407d474346040516105bb9190610a58565b60405180910390a2565b600260009054906101000a900473ffffffffffffffffffffffffffffffffffffffff1673ffffffffffffffffffffffffffffffffffffffff163373ffffffffffffffffffffffffffffffffffffffff1614610655576040517f08c379a000000000000000000000000000000000000000000000000000000000815260040161064c906109b8565b60405180910390fd5b600460009054906101000a900460ff1615801561067f5750600460019054906101000a900460ff16155b6106be576040517f08c379a00000000000000000000000000000000000000000000000000000000081526004016106b5906109f8565b60405180910390fd5b6001600460016101000a81548160ff02191690831515021790555060008054906101000a900473ffffffffffffffffffffffffffffffffffffffff1673ffffffffffffffffffffffffffffffffffffffff166108fc6003549081150290604051600060405180830381858888f19350505050158015610741573d6000803e3d6000fd5b507fca4bd5135a11e3fc146ac22d75f0d2eae9b6c61b6fa3eb6724a456b311ad72d36003546040516107739190610a58565b60405180910390a1565b600260009054906101000a900473ffffffffffffffffffffffffffffffffffffffff1681565b6107ac81610ada565b82525050565b6107bb81610aec565b82525050565b60006107ce602583610a73565b91507f4f6e6c792074686520617262697465722063616e20726566756e64207468652060008301527f62757965720000000000000000000000000000000000000000000000000000006020830152604082019050919050565b6000610834602083610a73565b91507f416d6f756e74206d7573742062652067726561746572207468616e207a65726f6000830152602082019050919050565b6000610874602c83610a73565b91507f46756e6473206861766520616c7265616479206265656e2072656c656173656460008301527f206f7220726566756e64656400000000000000000000000000000000000000006020830152604082019050919050565b60006108da602083610a73565b91507f4f6e6c79207468652062757965722063616e206465706f7369742066756e64736000830152602082019050919050565b600061091a602c83610a73565b91507f4f6e6c79207468652073656c6c6572206f7220617262697465722063616e207260008301527f656c656173652066756e647300000000000000000000000000000000000000006020830152604082019050919050565b61097c81610b18565b82525050565b600060208201905061099760008301846107a3565b92915050565b60006020820190506109b260008301846107b2565b92915050565b600060208201905081810360008301526109d1816107c1565b9050919050565b600060208201905081810360008301526109f181610827565b9050919050565b60006020820190508181036000830152610a1181610867565b9050919050565b60006020820190508181036000830152610a31816108cd565b9050919050565b60006020820190508181036000830152610a518161090d565b9050919050565b6000602082019050610a6d6000830184610973565b92915050565b600082825260208201905092915050565b6000610a8f82610b18565b9150610a9a83610b18565b9250827fffffffffffffffffffffffffffffffffffffffffffffffffffffffffffffffff03821115610acf57610ace610b22565b5b828201905092915050565b6000610ae582610af8565b9050919050565b60008115159050919050565b600073ffffffffffffffffffffffffffffffffffffffff82169050919050565b6000819050919050565b7f4e487b7100000000000000000000000000000000000000000000000000000000600052601160045260246000fdfea264697066735822122021d9b1faac6c1a364d2863cbb790eee41a238e3e2bb449187bb32118d1e42c6e64736f6c63430008000033",
  "linkReferences": {},
  "deployedLinkReferences": {}
}